:020000040000FA
:10000000A00120206D0100007101000073010000BB
:1000100000000000000000000000000000000000E0
:10002000000000000000000000000000750100005A
:1000300000000000000000007701000079010000CE
:100040007B0100007B0100007B0100007B010000C0
:100050007B0100007B0100007B0100007B010000B0
:10006000000000007B0100007B0100000000000098
:10007000000000007B0100007B0100007B0100000C
:100080007B0100007B0100007B0100007B01000080
:100090007B0100007B010000000000000000000068
:1000A0007B0100007B010000000000000000000058
:1000B0007B010000000000007B0100007B010000CC
:1000C00000F002F800F042F812A030C808382418F6
:1000D0002D18AC4201D100F039F80FCCA246AB4646
:1000E0000CA730CF2D1B083F3F197C427F1E544484
:1000F0002D090426F441641EAC4201D300F026F819
:100100000126334200D0FB1A3343984754465D46DC
:10011000DFE7000054060000640600000000000055
:100120007047000000000000002300240025002686
:10013000103A01D378C1FBD8520700D330C100D5A3
:100140000B6070471FB51FBD10B510BD00F027F83C
:100150001146FFF7F7FF00F0A1FA00F03FF803B4F3
:10016000FFF7F2FF03BC00F045F800000648004727
:10017000FEE7FEE7FEE7FEE7FEE7FEE70348044989
:10018000024A044B70470000C1000000A00020207C
:10019000A0012020A00020207047704770477546BE
:1001A00000F024F8AE46050069465346C008C0007A
:1001B000854618B020B5FFF7E1FF60BCB6460026C3
:1001C0000027C0C5C0C5C0C5C0C5C0C5C0C5C0C565
:1001D000C0C5403D490849008D46704710B50446EA
:1001E000C046C0462046FFF7BAFF10BD0048704722
:1001F0000000202001491820ABBEFEE726000200C7
:100200007047811E091F00BFFCD27047F0B584B053
:10021000012422022A4B1968039291431960344940
:100220000D686D04FCD5457E25409E69A643741972
:100230009C612024045D03252C40DE69AE43341903
:10024000DC61204C256805262660466A37681F62F7
:1002500076685E6207262E402660C4697F252D02DF
:10026000DE69AE436406640C3419DC6107684568D6
:1002700082680092C66802690192426902929A6994
:10028000114C14403A07120B2D03ADB2AA18324399
:10029000009D2D072D0D1543019A1543029A154314
:1002A000007E2843094A0240101998611868039A91
:1002B0001043186008688005FCD504B0F0BDC04646
:1002C00008010B40001340408D00F0FF72FF0F004B
:1002D00042498860064802689202FCD50122120455
:1002E0000B6813430B600168C906FCD57047C04614
:1002F00004020B40B0B51122120283580124A3431B
:1003000083508B780C881C438B882343094C1C40FA
:100310008358094D1D402B1983508B79CC791C4390
:10032000097A21437E231940801842689A43511864
:100330004160B0BD18670000E798FDFF10B50122CD
:10034000120383180C789C604978815010BD00001E
:10035000074882210160074A426081670649C167F8
:100360008121C16601208005044908600863704747
:100370005C8042408200040082000C00A0320A40EF
:1003800070B51548002404600F200002134D296841
:10039000814301267002081828600320C043291FEA
:1003A0000A6802400A606868B043686030026968A1
:1003B000814369600A48FFF729FF2868102101433B
:1003C00020208143296030032968014329602046A9
:1003D000FFF77EFF70BDC04608030B4004010B40D1
:1003E0002407000080B500F009F8FFF7B1FFFFF720
:1003F000C7FF00F05FF800F021F880BD10B5094894
:1004000009494160094A5160094B5960094C6160D2
:10041000094901601160196021601020FFF7F1FEA9
:1004200010BDC04600080A40030000B100280A4081
:1004300000081040002810400100002610B5AB4C09
:1004400019492046FFF77AFF18492046FFF752FF67
:100450000320C103164802688A4302600169334AD7
:100460000A40911C016141690B220A4334218A43ED
:100470004261426801210A4043688B439A184260F6
:100480004A04036813430360C268202313435022C5
:100490009343C360C2680223134305229343C3609E
:1004A00002680A43026010BD4C0700004E070000BE
:1004B0000031104010B58F4C19492046FFF73EFF20
:1004C00018492046FFF716FF0320C10316480268AB
:1004D0008A4302600169154A0A40911C0161416921
:1004E0000B220A4334218A434261426801210A40B7
:1004F00043688B439A1842604A04036813430360BD
:10050000C2682023134350229343C360C26802236E
:10051000134305229343C36002680A43026010BD7F
:10052000580700005A070000001110400000FFFFAC
:1005300080B5012100F04CF80148FFF762FE80BD54
:10054000A086010080B500F005F880BD80B500F000
:1005500007F880BD00234383437502710160704733
:1005600010B502684C4BD1584907817E0DD4D21882
:1005700003461633C9B203290CD8D4695C54817E72
:10058000491C817614686407F4D5C9B2042901D2E4
:10059000002010BD0279837D0421934212D1427E56
:1005A0006B2A0FD1027EE12A05DC022A09D09F2A9C
:1005B00008D1022106E0E22A01D0EE2A02D103216D
:1005C00000E0012100228276C176084610BDC046B7
:1005D000062242756B228272002242720172AB21A6
:1005E000C171F32181710279427101682A4BC918E6
:1005F0000B681B0608D50B681B0605D50B681B0688
:1006000002D50B681B06F3D48A6182790B681B063E
:1006100008D50B681B0605D50B681B0602D50B68B1
:100620001B06F3D48A61C2790B681B0608D50B68D8
:100630001B0605D50B681B0602D50B681B06F3D4F9
:100640008A61027A0B681B0608D50B681B0605D564
:100650000B681B0602D50B681B06F3D48A61427A2D
:100660000B681B0608D50B681B0605D50B681B0617
:1006700002D50B681B06F3D48A61807A0A681206D9
:1006800008D50A68120605D50A68120602D50A6856
:100690001206F3D48861704708110000FFF7A2FE2C
:1006A000114C124901262046324600F02EF8104D1A
:1006B00010492846324600F028F8284600F01EF877
:1006C000204600F01BF80C4E284600F017F8204694
:1006D00000F014F8284600F01FF8204600F01CF83F
:1006E0003046FFF78EFDEFE780002020002010400D
:1006F000600020200000104000B4C40410B504467F
:10070000FFF716FF0120607710BD10B50446FFF714
:1007100019FF0020A08310BD10B50446FFF716FF97
:10072000207710BD01000000000000000000000064
:1007300000000000000000001000000000000000A9
:1007400004000000000000003400C4410400000068
:100750001800000000300000040000001800000035
:10076000003000000000000078070000000020209A
:08077000A001000028010000B7
:04000005000000C136
:00000001FF
